S01800004763634170706C69636174696F6E36312E7372656324
S11300000C9433000C9450000C9450000C94500049
S11300100C9452000C9450000C9450000C9450001A
S11300200C9450000C9450000C9450000C9450000C
S11300300C9450000C9450000C9450000C945000FC
S11300400C9450000C9450000C9450000C945000EC
S11300500C945000D600D800DA00DC00DE00E0008A
S1130060E200E400E60011241FBECFE5D8E0DEBFC5
S1130070CDBF10E0A0E6B0E0E0EEF1E002C00590F4
S11300800D92A838B107D9F720E0A8E8B0E001C084
S11300901D92AE38B207E1F70E94B3000C94EE0053
S11300A00C9400001F920F920FB60F9211242F93FD
S11300B03F934F935F938F939F93AF93BF93EF932C
S11300C0FF9310928D0010928C0080E090E040E845
S11300D050E0FC01EC57FF4F80818BBB10928B00EA
S11300E010928A00DA01E0918C00F0918D00EE0FFD
S11300F0FF1FEE0FFF1FEE0FFF1FE05AFF4F80E0C0
S113010090E039B32D91322351F439B332232313C0
S1130110FCCF20813181309389002093880001969F
S113012090938B0080938A0032968430910549F72E
S113013080918C0090918D00019690938D00809316
S11301408C00843091052CF2FF91EF91BF91AF9117
S11301509F918F915F914F913F912F910F900FBE7F
S11301600F901F9018958FEF8BBB90EF9ABB88BBB5
S113017012BC8FE085BD14BC83EC83BD80E889BFCD
S11301807894B0E8A0E470E260E158E044E032E042
S113019021E080918800909189000197FC018930C9
S11301A09105E0F7E65DFF4F0C94E80028BBF1CF22
S11301B038BBEFCF48BBEDCF58BBEBCF68BBE9CF23
S11301C078BBE7CFA8BBE5CFB8BBE3CF18BAE1CF84
S11301D0EE0FFF1F0590F491E02D0994F894FFCFE2
S11301E001000200030004000500060007000800E7
S11301F009000A000B000C000D000E000F00100097
S10B020001020408EFDFBF7FD7
S9030000FC
